{
  "contractName": "Main",
  "abi": [
    {
      "inputs": [],
      "payable": true,
      "stateMutability": "payable",
      "type": "constructor"
    },
    {
      "payable": true,
      "stateMutability": "payable",
      "type": "fallback"
    },
    {
      "constant": false,
      "inputs": [
        {
          "internalType": "string",
          "name": "x",
          "type": "string"
        }
      ],
      "name": "set",
      "outputs": [],
      "payable": false,
      "stateMutability": "nonpayable",
      "type": "function"
    },
    {
      "constant": true,
      "inputs": [],
      "name": "get",
      "outputs": [
        {
          "internalType": "string",
          "name": "",
          "type": "string"
        }
      ],
      "payable": false,
      "stateMutability": "view",
      "type": "function"
    },
    {
      "constant": true,
      "inputs": [],
      "name": "returnBountyAddresses",
      "outputs": [
        {
          "internalType": "address payable[]",
          "name": "",
          "type": "address[]"
        }
      ],
      "payable": false,
      "stateMutability": "view",
      "type": "function"
    },
    {
      "constant": false,
      "inputs": [
        {
          "internalType": "address payable",
          "name": "_address",
          "type": "address"
        },
        {
          "internalType": "string",
          "name": "_name",
          "type": "string"
        },
        {
          "internalType": "uint256",
          "name": "_requirement",
          "type": "uint256"
        },
        {
          "internalType": "uint256",
          "name": "_bountyAmount",
          "type": "uint256"
        }
      ],
      "name": "addNewBounty",
      "outputs": [],
      "payable": false,
      "stateMutability": "nonpayable",
      "type": "function"
    },
    {
      "constant": false,
      "inputs": [
        {
          "internalType": "uint256",
          "name": "_accuracy",
          "type": "uint256"
        },
        {
          "internalType": "address payable",
          "name": "_submitter",
          "type": "address"
        },
        {
          "internalType": "address payable",
          "name": "_address",
          "type": "address"
        }
      ],
      "name": "addNewSubmission",
      "outputs": [],
      "payable": false,
      "stateMutability": "nonpayable",
      "type": "function"
    },
    {
      "constant": false,
      "inputs": [
        {
          "internalType": "address payable",
          "name": "_submitter",
          "type": "address"
        },
        {
          "internalType": "uint256",
          "name": "_amount",
          "type": "uint256"
        }
      ],
      "name": "payment",
      "outputs": [
        {
          "internalType": "bool",
          "name": "",
          "type": "bool"
        }
      ],
      "payable": true,
      "stateMutability": "payable",
      "type": "function"
    },
    {
      "constant": false,
      "inputs": [
        {
          "internalType": "address payable",
          "name": "_submitter",
          "type": "address"
        },
        {
          "internalType": "uint256",
          "name": "_amount",
          "type": "uint256"
        },
        {
          "internalType": "address payable",
          "name": "_address",
          "type": "address"
        }
      ],
      "name": "partialPayment",
      "outputs": [
        {
          "internalType": "bool",
          "name": "",
          "type": "bool"
        }
      ],
      "payable": true,
      "stateMutability": "payable",
      "type": "function"
    },
    {
      "constant": false,
      "inputs": [
        {
          "internalType": "address payable",
          "name": "_submitter",
          "type": "address"
        },
        {
          "internalType": "address payable",
          "name": "_address",
          "type": "address"
        }
      ],
      "name": "fullPayment",
      "outputs": [
        {
          "internalType": "bool",
          "name": "",
          "type": "bool"
        }
      ],
      "payable": true,
      "stateMutability": "payable",
      "type": "function"
    },
    {
      "constant": true,
      "inputs": [],
      "name": "returnTempBountyArray",
      "outputs": [
        {
          "components": [
            {
              "internalType": "string",
              "name": "name",
              "type": "string"
            },
            {
              "components": [
                {
                  "internalType": "address payable",
                  "name": "submitter",
                  "type": "address"
                },
                {
                  "internalType": "uint256",
                  "name": "accuracy",
                  "type": "uint256"
                },
                {
                  "internalType": "string",
                  "name": "bountyName",
                  "type": "string"
                }
              ],
              "internalType": "struct Main.submission[]",
              "name": "submissions",
              "type": "tuple[]"
            },
            {
              "internalType": "uint256",
              "name": "requirement",
              "type": "uint256"
            },
            {
              "internalType": "uint256",
              "name": "bountyAmount",
              "type": "uint256"
            }
          ],
          "internalType": "struct Main.bounty[]",
          "name": "",
          "type": "tuple[]"
        }
      ],
      "payable": false,
      "stateMutability": "view",
      "type": "function"
    },
    {
      "constant": false,
      "inputs": [],
      "name": "deleteTempBountyArray",
      "outputs": [],
      "payable": false,
      "stateMutability": "nonpayable",
      "type": "function"
    },
    {
      "constant": false,
      "inputs": [],
      "name": "retreieveTempBountyArray",
      "outputs": [],
      "payable": false,
      "stateMutability": "nonpayable",
      "type": "function"
    },
    {
      "constant": true,
      "inputs": [],
      "name": "returnTempSubmissionArray",
      "outputs": [
        {
          "components": [
            {
              "internalType": "address payable",
              "name": "submitter",
              "type": "address"
            },
            {
              "internalType": "uint256",
              "name": "accuracy",
              "type": "uint256"
            },
            {
              "internalType": "string",
              "name": "bountyName",
              "type": "string"
            }
          ],
          "internalType": "struct Main.submission[]",
          "name": "",
          "type": "tuple[]"
        }
      ],
      "payable": false,
      "stateMutability": "view",
      "type": "function"
    },
    {
      "constant": false,
      "inputs": [],
      "name": "deleteTempSubmissionArray",
      "outputs": [],
      "payable": false,
      "stateMutability": "nonpayable",
      "type": "function"
    },
    {
      "constant": false,
      "inputs": [
        {
          "internalType": "address",
          "name": "_submitter",
          "type": "address"
        }
      ],
      "name": "retrieveTempSubmissionArray",
      "outputs": [],
      "payable": false,
      "stateMutability": "nonpayable",
      "type": "function"
    },
    {
      "constant": false,
      "inputs": [
        {
          "internalType": "address",
          "name": "_address",
          "type": "address"
        }
      ],
      "name": "statistics",
      "outputs": [],
      "payable": false,
      "stateMutability": "nonpayable",
      "type": "function"
    }
  ],
  "bytecode": "0x60806040526040518060600160405280602e815260200162002866602e91396001908051906020019062000035929190620000b2565b506001600460006101000a81548160ff0219169083151502179055506001600460016101000a81548160ff021916908315150217905550336000806101000a81548173ffffffffffffffffffffffffffffffffffffffff021916908373ffffffffffffffffffffffffffffffffffffffff16021790555062000161565b828054600181600116156101000203166002900490600052602060002090601f016020900481019282601f10620000f557805160ff191683800117855562000126565b8280016001018555821562000126579182015b828111156200012557825182559160200191906001019062000108565b5b50905062000135919062000139565b5090565b6200015e91905b808211156200015a57600081600090555060010162000140565b5090565b90565b6126f580620001716000396000f3fe6080604052600436106100e85760003560e01c80636d4ce63c1161008a578063ada0b2fe11610059578063ada0b2fe146102b1578063d5007143146102c8578063e91edaac146102f8578063f555a6ad14610321576100e8565b80636d4ce63c1461021b5780637b65149114610246578063a484b8b21461026f578063aa2465151461029a576100e8565b80634d7bb00f116100c65780634d7bb00f1461016e5780634e657c43146101995780634ed3885e146101c257806367a09c23146101eb576100e8565b80630c14a4a0146100ea5780631b4f91fa1461011357806330a607811461013e575b005b3480156100f657600080fd5b50610111600480360361010c9190810190611e57565b610338565b005b34801561011f57600080fd5b506101286104c9565b60405161013591906123a8565b60405180910390f35b61015860048036036101539190810190611f73565b610557565b604051610165919061240e565b60405180910390f35b34801561017a57600080fd5b50610183610653565b60405161019091906123ec565b60405180910390f35b3480156101a557600080fd5b506101c060048036036101bb9190810190612003565b6107b4565b005b3480156101ce57600080fd5b506101e960048036036101e49190810190611fc2565b610b74565b005b61020560048036036102009190810190611f37565b610b8e565b604051610212919061240e565b60405180910390f35b34801561022757600080fd5b50610230610c46565b60405161023d9190612429565b60405180910390f35b34801561025257600080fd5b5061026d60048036036102689190810190611e57565b610ce8565b005b34801561027b57600080fd5b50610284610ff2565b60405161029191906123ca565b60405180910390f35b3480156102a657600080fd5b506102af611268565b005b3480156102bd57600080fd5b506102c6611278565b005b6102e260048036036102dd9190810190611e80565b61139d565b6040516102ef919061240e565b60405180910390f35b34801561030457600080fd5b5061031f600480360361031a9190810190611ebc565b6116e9565b005b34801561032d57600080fd5b50610336611969565b005b60008090505b600260008373ffffffffffffffffffffffffffffffffffffffff1673ffffffffffffffffffffffffffffffffffffffff168152602001908152602001600020600101805490508110156104bc576006600260008473ffffffffffffffffffffffffffffffffffffffff1673ffffffffffffffffffffffffffffffffffffffff16815260200190815260200160002060010182815481106103da57fe5b9060005260206000209060030201908060018154018082558091505090600182039060005260206000209060030201600090919290919091506000820160009054906101000a900473ffffffffffffffffffffffffffffffffffffffff168160000160006101000a81548173ffffffffffffffffffffffffffffffffffffffff021916908373ffffffffffffffffffffffffffffffffffffffff16021790555060018201548160010155600282018160020190805460018160011615610100020316600290046104ab9291906119b3565b50505050808060010191505061033e565b506104c5610653565b5050565b6060600380548060200260200160405190810160405280929190818152602001828054801561054d57602002820191906000526020600020905b8160009054906101000a900473ffffffffffffffffffffffffffffffffffffffff1673ffffffffffffffffffffffffffffffffffffffff1681526020019060010190808311610503575b5050505050905090565b60008060009054906101000a900473ffffffffffffffffffffffffffffffffffffffff1673ffffffffffffffffffffffffffffffffffffffff163373ffffffffffffffffffffffffffffffffffffffff16146105b257600080fd5b6105bc8484610b8e565b5082600260008473ffffffffffffffffffffffffffffffffffffffff1673ffffffffffffffffffffffffffffffffffffffff1681526020019081526020016000206003015403600260008473ffffffffffffffffffffffffffffffffffffffff1673ffffffffffffffffffffffffffffffffffffffff16815260200190815260200160002060030181905550600190509392505050565b60606006805480602002602001604051908101604052809291908181526020016000905b828210156107ab57838290600052602060002090600302016040518060600160405290816000820160009054906101000a900473ffffffffffffffffffffffffffffffffffffffff1673ffffffffffffffffffffffffffffffffffffffff1673ffffffffffffffffffffffffffffffffffffffff16815260200160018201548152602001600282018054600181600116156101000203166002900480601f0160208091040260200160405190810160405280929190818152602001828054600181600116156101000203166002900480156107935780601f1061076857610100808354040283529160200191610793565b820191906000526020600020905b81548152906001019060200180831161077657829003601f168201915b50505050508152505081526020019060010190610677565b50505050905090565b60008090505b600260008373ffffffffffffffffffffffffffffffffffffffff1673ffffffffffffffffffffffffffffffffffffffff168152602001908152602001600020600101805490508110156108de578273ffffffffffffffffffffffffffffffffffffffff16600260008473ffffffffffffffffffffffffffffffffffffffff1673ffffffffffffffffffffffffffffffffffffffff168152602001908152602001600020600101828154811061086b57fe5b906000526020600020906003020160000160009054906101000a900473ffffffffffffffffffffffffffffffffffffffff1673ffffffffffffffffffffffffffffffffffffffff1614156108d15760001515600460019054906101000a905050506108de565b80806001019150506107ba565b5060011515600460019054906101000a900460ff1615151415610b66576000809054906101000a900473ffffffffffffffffffffffffffffffffffffffff1673ffffffffffffffffffffffffffffffffffffffff163373ffffffffffffffffffffffffffffffffffffffff161461095457600080fd5b61095c611a3a565b82816000019073ffffffffffffffffffffffffffffffffffffffff16908173ffffffffffffffffffffffffffffffffffffffff168152505083816020018181525050600260008373ffffffffffffffffffffffffffffffffffffffff1673ffffffffffffffffffffffffffffffffffffffff1681526020019081526020016000206000018054600181600116156101000203166002900480601f016020809104026020016040519081016040528092919081815260200182805460018160011615610100020316600290048015610a745780601f10610a4957610100808354040283529160200191610a74565b820191906000526020600020905b815481529060010190602001808311610a5757829003601f168201915b50505050508160400181905250600260008373ffffffffffffffffffffffffffffffffffffffff1673ffffffffffffffffffffffffffffffffffffffff168152602001908152602001600020600101819080600181540180825580915050906001820390600052602060002090600302016000909192909190915060008201518160000160006101000a81548173ffffffffffffffffffffffffffffffffffffffff021916908373ffffffffffffffffffffffffffffffffffffffff160217905550602082015181600101556040820151816002019080519060200190610b5c929190611a71565b5050505050610b6f565b610b6e611979565b5b505050565b8060019080519060200190610b8a929190611af1565b5050565b60008060009054906101000a900473ffffffffffffffffffffffffffffffffffffffff1673ffffffffffffffffffffffffffffffffffffffff163373ffffffffffffffffffffffffffffffffffffffff1614610be957600080fd5b814711610bf557600080fd5b8273ffffffffffffffffffffffffffffffffffffffff166108fc839081150290604051600060405180830381858888f19350505050158015610c3b573d6000803e3d6000fd5b506001905092915050565b606060018054600181600116156101000203166002900480601f016020809104026020016040519081016040528092919081815260200182805460018160011615610100020316600290048015610cde5780601f10610cb357610100808354040283529160200191610cde565b820191906000526020600020905b815481529060010190602001808311610cc157829003601f168201915b5050505050905090565b60008090505b600380549050811015610fe55760008090505b6002600060038481548110610d1257fe5b9060005260206000200160009054906101000a900473ffffffffffffffffffffffffffffffffffffffff1673ffffffffffffffffffffffffffffffffffffffff1673ffffffffffffffffffffffffffffffffffffffff16815260200190815260200160002060010180549050811015610fd7578273ffffffffffffffffffffffffffffffffffffffff166002600060038581548110610dad57fe5b9060005260206000200160009054906101000a900473ffffffffffffffffffffffffffffffffffffffff1673ffffffffffffffffffffffffffffffffffffffff1673ffffffffffffffffffffffffffffffffffffffff1681526020019081526020016000206001018281548110610e2057fe5b906000526020600020906003020160000160009054906101000a900473ffffffffffffffffffffffffffffffffffffffff1673ffffffffffffffffffffffffffffffffffffffff161415610fca5760066002600060038581548110610e8157fe5b9060005260206000200160009054906101000a900473ffffffffffffffffffffffffffffffffffffffff1673ffffffffffffffffffffffffffffffffffffffff1673ffffffffffffffffffffffffffffffffffffffff1681526020019081526020016000206001018281548110610ef457fe5b9060005260206000209060030201908060018154018082558091505090600182039060005260206000209060030201600090919290919091506000820160009054906101000a900473ffffffffffffffffffffffffffffffffffffffff168160000160006101000a81548173ffffffffffffffffffffffffffffffffffffffff021916908373ffffffffffffffffffffffffffffffffffffffff1602179055506001820154816001015560028201816002019080546001816001161561010002031660029004610fc59291906119b3565b505050505b8080600101915050610d01565b508080600101915050610cee565b50610fee610653565b5050565b60606005805480602002602001604051908101604052809291908181526020016000905b8282101561125f5783829060005260206000209060040201604051806080016040529081600082018054600181600116156101000203166002900480601f0160208091040260200160405190810160405280929190818152602001828054600181600116156101000203166002900480156110d25780601f106110a7576101008083540402835291602001916110d2565b820191906000526020600020905b8154815290600101906020018083116110b557829003601f168201915b5050505050815260200160018201805480602002602001604051908101604052809291908181526020016000905b8282101561123457838290600052602060002090600302016040518060600160405290816000820160009054906101000a900473ffffffffffffffffffffffffffffffffffffffff1673ffffffffffffffffffffffffffffffffffffffff1673ffffffffffffffffffffffffffffffffffffffff16815260200160018201548152602001600282018054600181600116156101000203166002900480601f01602080910402602001604051908101604052809291908181526020018280546001816001161561010002031660029004801561121c5780601f106111f15761010080835404028352916020019161121c565b820191906000526020600020905b8154815290600101906020018083116111ff57829003601f168201915b50505050508152505081526020019060010190611100565b5050505081526020016002820154815260200160038201548152505081526020019060010190611016565b50505050905090565b600560006112769190611b71565b565b60008090505b600380549050811015611391576005600260006003848154811061129e57fe5b9060005260206000200160009054906101000a900473ffffffffffffffffffffffffffffffffffffffff1673ffffffffffffffffffffffffffffffffffffffff1673ffffffffffffffffffffffffffffffffffffffff16815260200190815260200160002090806001815401808255809150509060018203906000526020600020906004020160009091929091909150600082018160000190805460018160011615610100020316600290046113559291906119b3565b50600182018160010190805461136c929190611b95565b506002820154816002015560038201548160030155505050808060010191505061127e565b5061139a610ff2565b50565b60008060009054906101000a900473ffffffffffffffffffffffffffffffffffffffff1673ffffffffffffffffffffffffffffffffffffffff163373ffffffffffffffffffffffffffffffffffffffff16146113f857600080fd5b600260008373ffffffffffffffffffffffffffffffffffffffff1673ffffffffffffffffffffffffffffffffffffffff1681526020019081526020016000206003015447101561144757600080fd5b8273ffffffffffffffffffffffffffffffffffffffff166108fc600260008573ffffffffffffffffffffffffffffffffffffffff1673ffffffffffffffffffffffffffffffffffffffff168152602001908152602001600020600301549081150290604051600060405180830381858888f193505050501580156114cf573d6000803e3d6000fd5b506000600260008473ffffffffffffffffffffffffffffffffffffffff1673ffffffffffffffffffffffffffffffffffffffff1681526020019081526020016000206003018190555060405180602001604052806000815250600260008473ffffffffffffffffffffffffffffffffffffffff1673ffffffffffffffffffffffffffffffffffffffff168152602001908152602001600020600001908051906020019061157d929190611af1565b506000600260008473ffffffffffffffffffffffffffffffffffffffff1673ffffffffffffffffffffffffffffffffffffffff16815260200190815260200160002060020181905550600260008373ffffffffffffffffffffffffffffffffffffffff1673ffffffffffffffffffffffffffffffffffffffff16815260200190815260200160002060010160006116149190611c86565b60008090505b6003805490508110156116de578273ffffffffffffffffffffffffffffffffffffffff166003828154811061164b57fe5b9060005260206000200160009054906101000a900473ffffffffffffffffffffffffffffffffffffffff1673ffffffffffffffffffffffffffffffffffffffff1614156116d1576003818154811061169f57fe5b9060005260206000200160006101000a81549073ffffffffffffffffffffffffffffffffffffffff02191690556116de565b808060010191505061161a565b506001905092915050565b60008090505b600380549050811015611794578473ffffffffffffffffffffffffffffffffffffffff166003828154811061172057fe5b9060005260206000200160009054906101000a900473ffffffffffffffffffffffffffffffffffffffff1673ffffffffffffffffffffffffffffffffffffffff161415611787576000600460006101000a81548160ff021916908315150217905550611794565b80806001019150506116ef565b5060011515600460009054906101000a900460ff161515141561195a576000809054906101000a900473ffffffffffffffffffffffffffffffffffffffff1673ffffffffffffffffffffffffffffffffffffffff163373ffffffffffffffffffffffffffffffffffffffff161461180a57600080fd5b82600260008673ffffffffffffffffffffffffffffffffffffffff1673ffffffffffffffffffffffffffffffffffffffff1681526020019081526020016000206000019080519060200190611860929190611af1565b5081600260008673ffffffffffffffffffffffffffffffffffffffff1673ffffffffffffffffffffffffffffffffffffffff1681526020019081526020016000206002018190555080600260008673ffffffffffffffffffffffffffffffffffffffff1673ffffffffffffffffffffffffffffffffffffffff1681526020019081526020016000206003018190555060038490806001815401808255809150509060018203906000526020600020016000909192909190916101000a81548173ffffffffffffffffffffffffffffffffffffffff021916908373ffffffffffffffffffffffffffffffffffffffff16021790555050611963565b611962611996565b5b50505050565b600660006119779190611c86565b565b6001600460016101000a81548160ff021916908315150217905550565b6001600460006101000a81548160ff021916908315150217905550565b828054600181600116156101000203166002900490600052602060002090601f016020900481019282601f106119ec5780548555611a29565b82800160010185558215611a2957600052602060002091601f016020900482015b82811115611a28578254825591600101919060010190611a0d565b5b509050611a369190611caa565b5090565b6040518060600160405280600073ffffffffffffffffffffffffffffffffffffffff16815260200160008152602001606081525090565b828054600181600116156101000203166002900490600052602060002090601f016020900481019282601f10611ab257805160ff1916838001178555611ae0565b82800160010185558215611ae0579182015b82811115611adf578251825591602001919060010190611ac4565b5b509050611aed9190611caa565b5090565b828054600181600116156101000203166002900490600052602060002090601f016020900481019282601f10611b3257805160ff1916838001178555611b60565b82800160010185558215611b60579182015b82811115611b5f578251825591602001919060010190611b44565b5b509050611b6d9190611caa565b5090565b5080546000825560040290600052602060002090810190611b929190611ccf565b50565b828054828255906000526020600020906003028101928215611c755760005260206000209160030282015b82811115611c745782826000820160009054906101000a900473ffffffffffffffffffffffffffffffffffffffff168160000160006101000a81548173ffffffffffffffffffffffffffffffffffffffff021916908373ffffffffffffffffffffffffffffffffffffffff1602179055506001820154816001015560028201816002019080546001816001161561010002031660029004611c629291906119b3565b50505091600301919060030190611bc0565b5b509050611c829190611d1e565b5090565b5080546000825560030290600052602060002090810190611ca79190611d1e565b50565b611ccc91905b80821115611cc8576000816000905550600101611cb0565b5090565b90565b611d1b91905b80821115611d175760008082016000611cee9190611d7c565b600182016000611cfe9190611c86565b6002820160009055600382016000905550600401611cd5565b5090565b90565b611d7991905b80821115611d7557600080820160006101000a81549073ffffffffffffffffffffffffffffffffffffffff02191690556001820160009055600282016000611d6c9190611d7c565b50600301611d24565b5090565b90565b50805460018160011615610100020316600290046000825580601f10611da25750611dc1565b601f016020900490600052602060002090810190611dc09190611caa565b5b50565b600081359050611dd38161266d565b92915050565b600081359050611de881612684565b92915050565b600082601f830112611dff57600080fd5b8135611e12611e0d82612478565b61244b565b91508082526020830160208301858383011115611e2e57600080fd5b611e3983828461261a565b50505092915050565b600081359050611e518161269b565b92915050565b600060208284031215611e6957600080fd5b6000611e7784828501611dc4565b91505092915050565b60008060408385031215611e9357600080fd5b6000611ea185828601611dd9565b9250506020611eb285828601611dd9565b9150509250929050565b60008060008060808587031215611ed257600080fd5b6000611ee087828801611dd9565b945050602085013567ffffffffffffffff811115611efd57600080fd5b611f0987828801611dee565b9350506040611f1a87828801611e42565b9250506060611f2b87828801611e42565b91505092959194509250565b60008060408385031215611f4a57600080fd5b6000611f5885828601611dd9565b9250506020611f6985828601611e42565b9150509250929050565b600080600060608486031215611f8857600080fd5b6000611f9686828701611dd9565b9350506020611fa786828701611e42565b9250506040611fb886828701611dd9565b9150509250925092565b600060208284031215611fd457600080fd5b600082013567ffffffffffffffff811115611fee57600080fd5b611ffa84828501611dee565b91505092915050565b60008060006060848603121561201857600080fd5b600061202686828701611e42565b935050602061203786828701611dd9565b925050604061204886828701611dd9565b9150509250925092565b600061205e8383612092565b60208301905092915050565b600061207683836122df565b905092915050565b600061208a8383612349565b905092915050565b61209b816125d2565b82525050565b60006120ac826124e4565b6120b6818561255a565b93506120c1836124a4565b8060005b838110156120f25781516120d98882612052565b97506120e483612526565b9250506001810190506120c5565b5085935050505092915050565b600061210a826124ef565b612114818561256b565b935083602082028501612126856124b4565b8060005b858110156121625784840389528151612143858261206a565b945061214e83612533565b925060208a0199505060018101905061212a565b50829750879550505050505092915050565b600061217f82612505565b612189818561258d565b93508360208202850161219b856124d4565b8060005b858110156121d757848403895281516121b8858261207e565b94506121c38361254d565b925060208a0199505060018101905061219f565b50829750879550505050505092915050565b60006121f4826124fa565b6121fe818561257c565b935083602082028501612210856124c4565b8060005b8581101561224c578484038952815161222d858261207e565b945061223883612540565b925060208a01995050600181019050612214565b50829750879550505050505092915050565b612267816125e4565b82525050565b60006122788261251b565b61228281856125af565b9350612292818560208601612629565b61229b8161265c565b840191505092915050565b60006122b182612510565b6122bb818561259e565b93506122cb818560208601612629565b6122d48161265c565b840191505092915050565b600060808301600083015184820360008601526122fc82826122a6565b9150506020830151848203602086015261231682826121e9565b915050604083015161232b6040860182612399565b50606083015161233e6060860182612399565b508091505092915050565b60006060830160008301516123616000860182612092565b5060208301516123746020860182612399565b506040830151848203604086015261238c82826122a6565b9150508091505092915050565b6123a281612610565b82525050565b600060208201905081810360008301526123c281846120a1565b905092915050565b600060208201905081810360008301526123e481846120ff565b905092915050565b600060208201905081810360008301526124068184612174565b905092915050565b6000602082019050612423600083018461225e565b92915050565b60006020820190508181036000830152612443818461226d565b905092915050565b6000604051905081810181811067ffffffffffffffff8211171561246e57600080fd5b8060405250919050565b600067ffffffffffffffff82111561248f57600080fd5b601f19601f8301169050602081019050919050565b6000819050602082019050919050565b6000819050602082019050919050565b6000819050602082019050919050565b6000819050602082019050919050565b600081519050919050565b600081519050919050565b600081519050919050565b600081519050919050565b600081519050919050565b600081519050919050565b6000602082019050919050565b6000602082019050919050565b6000602082019050919050565b6000602082019050919050565b600082825260208201905092915050565b600082825260208201905092915050565b600082825260208201905092915050565b600082825260208201905092915050565b600082825260208201905092915050565b600082825260208201905092915050565b60006125cb826125f0565b9050919050565b60006125dd826125f0565b9050919050565b60008115159050919050565b600073ffffffffffffffffffffffffffffffffffffffff82169050919050565b6000819050919050565b82818337600083830152505050565b60005b8381101561264757808201518184015260208101905061262c565b83811115612656576000848401525b50505050565b6000601f19601f8301169050919050565b612676816125c0565b811461268157600080fd5b50565b61268d816125d2565b811461269857600080fd5b50565b6126a481612610565b81146126af57600080fd5b5056fea365627a7a72315820d3703ca4695e065d883a3ecb008ce718f7409f0c2983aa92953cd1fb28ad5e3e6c6578706572696d656e74616cf564736f6c63430005100040516d624a574145537143736634524643714559376a6563436173686a387573586979444e664b745a4377777a4762",
  "source": "pragma solidity >=0.4.21 <0.7.0;\r\npragma experimental ABIEncoderV2;\r\n\r\ncontract Main {\r\n    \r\n    address initialCreator; \r\n    constructor() payable public {\r\n        initialCreator = msg.sender;\r\n    }\r\n    \r\n    //Ipfs thing\r\n  string storedData = \"QmbJWAESqCsf4RFCqEY7jecCashj8usXiyDNfKtZCwwzGb\";\r\n\r\n  function set(string memory x) public {\r\n    storedData = x;\r\n  }\r\n\r\n  function get() public view returns (string memory) {\r\n    return storedData;\r\n  }\r\n \r\n  function () external payable {\r\n\r\n  }\r\n\r\n    \r\n    \r\n    //These are just defining data stuff... *******\r\n    struct submission {\r\n        address payable submitter;\r\n        uint256 accuracy;\r\n        string bountyName;\r\n    }\r\n    \r\n    struct bounty {\r\n        string name;\r\n        submission[] submissions;\r\n        uint256 requirement;\r\n        uint256 bountyAmount;\r\n    }\r\n    \r\n    mapping(address => bounty) bountyHashTable;\r\n    address payable[] bountyAddresses;\r\n    \r\n    bool bountyTracker = true;\r\n    function resetBountyTracker() private {\r\n        bountyTracker = true;\r\n    }\r\n    // ****************\r\n    \r\n    function returnBountyAddresses() public view returns (address payable[] memory) {\r\n        return bountyAddresses;\r\n    }\r\n    //First main function, add a new bounty (in this contract i refer to _address as the bounty creator, _submitter as a test case submitter)\r\n    function addNewBounty(address payable _address, string memory _name, uint256 _requirement, uint256 _bountyAmount) public {\r\n        for (uint256 i = 0; i < bountyAddresses.length; i++) { \r\n            if (bountyAddresses[i] == _address) {\r\n                bountyTracker = false;\r\n                break;\r\n            }\r\n        }\r\n        if (bountyTracker == true) {\r\n            require (msg.sender == initialCreator);\r\n            bountyHashTable[_address].name = _name;\r\n            bountyHashTable[_address].requirement = _requirement;\r\n            bountyHashTable[_address].bountyAmount = _bountyAmount;\r\n            bountyAddresses.push(_address);\r\n        } else {\r\n            resetBountyTracker();\r\n        }\r\n    }\r\n    \r\n    //Helper function and bool. No endpoint *****\r\n    bool submissionTracker = true;\r\n    function resetSubmissionTracker() private {\r\n        submissionTracker = true;\r\n    }\r\n    //***\r\n    \r\n    //Adding a new submission - see main function comment for parameters\r\n    function addNewSubmission(uint256 _accuracy, address payable _submitter, address payable _address) public {\r\n            for (uint256 k = 0; k < bountyHashTable[_address].submissions.length; k++) {\r\n                if (bountyHashTable[_address].submissions[k].submitter == _submitter) {\r\n                    submissionTracker == false;\r\n                    break;\r\n                }\r\n        }\r\n        \r\n        if (submissionTracker == true) {\r\n            require (msg.sender == initialCreator);\r\n            submission memory sub;\r\n            sub.submitter = _submitter;\r\n            sub.accuracy = _accuracy;\r\n            sub.bountyName = bountyHashTable[_address].name;\r\n            bountyHashTable[_address].submissions.push(sub);\r\n        } else {\r\n            resetSubmissionTracker();\r\n        }\r\n    }\r\n    \r\n    //Helper function - _amount is in wei BTW - no endpoint please\r\n    function payment(address payable _submitter, uint256  _amount)public payable returns (bool) {\r\n        require (msg.sender == initialCreator);\r\n        require (address(this).balance > _amount);\r\n        _submitter.transfer(_amount);\r\n        return true;\r\n    }\r\n    //here we need the address of the user who made the bounty, the submitter that is getting partial payment, it updates the amount in bounty too\r\n    function partialPayment(address payable _submitter, uint256 _amount, address payable _address) public payable returns (bool) {\r\n        require (msg.sender == initialCreator);\r\n        payment(_submitter, _amount);\r\n        bountyHashTable[_address].bountyAmount = bountyHashTable[_address].bountyAmount - _amount;\r\n        return true;\r\n    }\r\n    \r\n    //This completes the full payment with only submitter and bounty maker address, then deletes the bounty\r\n    function fullPayment(address payable _submitter, address payable _address) public payable returns (bool){\r\n        require (msg.sender == initialCreator);\r\n        require (address(this).balance >= bountyHashTable[_address].bountyAmount);\r\n        _submitter.transfer(bountyHashTable[_address].bountyAmount);\r\n        bountyHashTable[_address].bountyAmount = 0;\r\n        bountyHashTable[_address].name = \"\";\r\n        bountyHashTable[_address].requirement = 0;\r\n        delete bountyHashTable[_address].submissions;\r\n        \r\n        for (uint256 l = 0; l < bountyAddresses.length; l++) {\r\n            if (bountyAddresses[l] == _address) {\r\n                delete bountyAddresses[l];\r\n                break;\r\n            }\r\n        }\r\n        return true;\r\n    }\r\n    \r\n    //Helper function and array, do not make endpoint, used in the main function of retrieving bounties\r\n    bounty[] tempBountyArray;\r\n    function returnTempBountyArray() public view returns (bounty[] memory) {\r\n        return tempBountyArray;\r\n    }\r\n\r\n    function deleteTempBountyArray() public {\r\n        delete tempBountyArray;\r\n    }\r\n    \r\n    //Main retriever function, returns results then clears it too - this is obv an endpoint -- also, this technically returns all submissions for all given bounties\r\n    function retreieveTempBountyArray() public {\r\n        for (uint256 j = 0; j < bountyAddresses.length; j++) {\r\n            tempBountyArray.push(bountyHashTable[bountyAddresses[j]]);\r\n        }\r\n        returnTempBountyArray();\r\n    }\r\n    \r\n    //This is a helper function and array - do not pay attention or endpoint\r\n    submission[] tempSubmissionArray;\r\n    function returnTempSubmissionArray() public view returns (submission[] memory) {\r\n        return tempSubmissionArray;\r\n    }\r\n    function deleteTempSubmissionArray() public {\r\n        delete tempSubmissionArray;\r\n    }\r\n    \r\n    //This function for endpoint finds all the submissions for any given address and returns an array of it including their accuracy and the name of the bounty \r\n    function retrieveTempSubmissionArray(address _submitter) public {\r\n        for (uint256 p = 0; p < bountyAddresses.length; p++) {\r\n            for (uint256 u = 0; u < bountyHashTable[bountyAddresses[p]].submissions.length; u++) {\r\n                if (bountyHashTable[bountyAddresses[p]].submissions[u].submitter == _submitter) {\r\n                    tempSubmissionArray.push( bountyHashTable[bountyAddresses[p]].submissions[u]);\r\n                }\r\n            }\r\n        }\r\n        returnTempSubmissionArray();\r\n    }\r\n\r\n      function statistics(address _address) public {\r\n        for (uint256 q = 0; q < bountyHashTable[_address].submissions.length; q++) {\r\n            tempSubmissionArray.push(bountyHashTable[_address].submissions[q]);\r\n        }\r\n        returnTempSubmissionArray();\r\n    }\r\n    \r\n}\r\n",
  "sourcePath": "C:\\Users\\marko\\Documents\\GitHub\\Hack-The-Northeast\\contracts\\Main.sol",
  "compiler": {
    "name": "solc",
    "version": "0.5.16+commit.9c3226ce.Emscripten.clang"
  },
  "schemaVersion": "3.0.23",
  "updatedAt": "2020-06-07T12:11:25.648Z",
  "networkType": "ethereum",
  "devdoc": {
    "methods": {}
  },
  "userdoc": {
    "methods": {}
  }
}