{
  "contractName": "Main",
  "abi": [
    {
      "inputs": [],
      "payable": true,
      "stateMutability": "payable",
      "type": "constructor"
    },
    {
      "payable": true,
      "stateMutability": "payable",
      "type": "fallback"
    },
    {
      "constant": false,
      "inputs": [
        {
          "internalType": "string",
          "name": "x",
          "type": "string"
        }
      ],
      "name": "set",
      "outputs": [],
      "payable": false,
      "stateMutability": "nonpayable",
      "type": "function"
    },
    {
      "constant": true,
      "inputs": [],
      "name": "get",
      "outputs": [
        {
          "internalType": "string",
          "name": "",
          "type": "string"
        }
      ],
      "payable": false,
      "stateMutability": "view",
      "type": "function"
    },
    {
      "constant": false,
      "inputs": [
        {
          "internalType": "address payable",
          "name": "_address",
          "type": "address"
        },
        {
          "internalType": "string",
          "name": "_name",
          "type": "string"
        },
        {
          "internalType": "uint256",
          "name": "_requirement",
          "type": "uint256"
        },
        {
          "internalType": "uint256",
          "name": "_bountyAmount",
          "type": "uint256"
        }
      ],
      "name": "addNewBounty",
      "outputs": [],
      "payable": false,
      "stateMutability": "nonpayable",
      "type": "function"
    },
    {
      "constant": false,
      "inputs": [
        {
          "internalType": "uint256",
          "name": "_accuracy",
          "type": "uint256"
        },
        {
          "internalType": "address payable",
          "name": "_submitter",
          "type": "address"
        },
        {
          "internalType": "address payable",
          "name": "_address",
          "type": "address"
        }
      ],
      "name": "addNewSubmission",
      "outputs": [],
      "payable": false,
      "stateMutability": "nonpayable",
      "type": "function"
    },
    {
      "constant": false,
      "inputs": [
        {
          "internalType": "address payable",
          "name": "_submitter",
          "type": "address"
        },
        {
          "internalType": "uint256",
          "name": "_amount",
          "type": "uint256"
        }
      ],
      "name": "payment",
      "outputs": [
        {
          "internalType": "bool",
          "name": "",
          "type": "bool"
        }
      ],
      "payable": true,
      "stateMutability": "payable",
      "type": "function"
    },
    {
      "constant": false,
      "inputs": [
        {
          "internalType": "address payable",
          "name": "_submitter",
          "type": "address"
        },
        {
          "internalType": "uint256",
          "name": "_amount",
          "type": "uint256"
        },
        {
          "internalType": "address payable",
          "name": "_address",
          "type": "address"
        }
      ],
      "name": "partialPayment",
      "outputs": [
        {
          "internalType": "bool",
          "name": "",
          "type": "bool"
        }
      ],
      "payable": true,
      "stateMutability": "payable",
      "type": "function"
    },
    {
      "constant": false,
      "inputs": [
        {
          "internalType": "address payable",
          "name": "_submitter",
          "type": "address"
        },
        {
          "internalType": "address payable",
          "name": "_address",
          "type": "address"
        }
      ],
      "name": "fullPayment",
      "outputs": [
        {
          "internalType": "bool",
          "name": "",
          "type": "bool"
        }
      ],
      "payable": true,
      "stateMutability": "payable",
      "type": "function"
    },
    {
      "constant": true,
      "inputs": [],
      "name": "returnTempBountyArray",
      "outputs": [
        {
          "components": [
            {
              "internalType": "string",
              "name": "name",
              "type": "string"
            },
            {
              "components": [
                {
                  "internalType": "address payable",
                  "name": "submitter",
                  "type": "address"
                },
                {
                  "internalType": "uint256",
                  "name": "accuracy",
                  "type": "uint256"
                }
              ],
              "internalType": "struct Main.submission[]",
              "name": "submissions",
              "type": "tuple[]"
            },
            {
              "internalType": "uint256",
              "name": "requirement",
              "type": "uint256"
            },
            {
              "internalType": "uint256",
              "name": "bountyAmount",
              "type": "uint256"
            }
          ],
          "internalType": "struct Main.bounty[]",
          "name": "",
          "type": "tuple[]"
        }
      ],
      "payable": false,
      "stateMutability": "view",
      "type": "function"
    },
    {
      "constant": false,
      "inputs": [],
      "name": "deleteTempBountyArray",
      "outputs": [],
      "payable": false,
      "stateMutability": "nonpayable",
      "type": "function"
    },
    {
      "constant": false,
      "inputs": [],
      "name": "retreieveTempBountyArray",
      "outputs": [],
      "payable": false,
      "stateMutability": "nonpayable",
      "type": "function"
    },
    {
      "constant": true,
      "inputs": [],
      "name": "returnTempSubmissionArray",
      "outputs": [
        {
          "components": [
            {
              "internalType": "address payable",
              "name": "submitter",
              "type": "address"
            },
            {
              "internalType": "uint256",
              "name": "accuracy",
              "type": "uint256"
            }
          ],
          "internalType": "struct Main.submission[]",
          "name": "",
          "type": "tuple[]"
        }
      ],
      "payable": false,
      "stateMutability": "view",
      "type": "function"
    },
    {
      "constant": false,
      "inputs": [],
      "name": "deleteTempSubmissionArray",
      "outputs": [],
      "payable": false,
      "stateMutability": "nonpayable",
      "type": "function"
    },
    {
      "constant": false,
      "inputs": [
        {
          "internalType": "address",
          "name": "_submitter",
          "type": "address"
        }
      ],
      "name": "retrieveTempSubmissionArray",
      "outputs": [],
      "payable": false,
      "stateMutability": "nonpayable",
      "type": "function"
    }
  ],
  "bytecode": "0x60806040526001600460006101000a81548160ff0219169083151502179055506001600460016101000a81548160ff021916908315150217905550336000806101000a81548173ffffffffffffffffffffffffffffffffffffffff021916908373ffffffffffffffffffffffffffffffffffffffff16021790555061200d806100896000396000f3fe6080604052600436106100c25760003560e01c80637b6514911161007f578063ada0b2fe11610059578063ada0b2fe14610237578063d50071431461024e578063e91edaac1461027e578063f555a6ad146102a7576100c2565b80637b651491146101cc578063a484b8b2146101f5578063aa24651514610220576100c2565b806330a60781146100c45780634d7bb00f146100f45780634e657c431461011f5780634ed3885e1461014857806367a09c23146101715780636d4ce63c146101a1575b005b6100de60048036036100d991908101906119a7565b6102be565b6040516100eb9190611d5f565b60405180910390f35b34801561010057600080fd5b506101096103ba565b6040516101169190611d3d565b60405180910390f35b34801561012b57600080fd5b5061014660048036036101419190810190611a37565b610479565b005b34801561015457600080fd5b5061016f600480360361016a91908101906119f6565b610739565b005b61018b6004803603610186919081019061196b565b610753565b6040516101989190611d5f565b60405180910390f35b3480156101ad57600080fd5b506101b661080b565b6040516101c39190611d7a565b60405180910390f35b3480156101d857600080fd5b506101f360048036036101ee919081019061188b565b6108ad565b005b34801561020157600080fd5b5061020a610b8f565b6040516102179190611d1b565b60405180910390f35b34801561022c57600080fd5b50610235610d63565b005b34801561024357600080fd5b5061024c610d73565b005b610268600480360361026391908101906118b4565b610e98565b6040516102759190611d5f565b60405180910390f35b34801561028a57600080fd5b506102a560048036036102a091908101906118f0565b6111e4565b005b3480156102b357600080fd5b506102bc61145c565b005b60008060009054906101000a900473ffffffffffffffffffffffffffffffffffffffff1673ffffffffffffffffffffffffffffffffffffffff163373ffffffffffffffffffffffffffffffffffffffff161461031957600080fd5b6103238484610753565b5082600260008473ffffffffffffffffffffffffffffffffffffffff1673ffffffffffffffffffffffffffffffffffffffff1681526020019081526020016000206003015403600260008473ffffffffffffffffffffffffffffffffffffffff1673ffffffffffffffffffffffffffffffffffffffff16815260200190815260200160002060030181905550600190509392505050565b60606006805480602002602001604051908101604052809291908181526020016000905b8282101561047057838290600052602060002090600202016040518060400160405290816000820160009054906101000a900473ffffffffffffffffffffffffffffffffffffffff1673ffffffffffffffffffffffffffffffffffffffff1673ffffffffffffffffffffffffffffffffffffffff168152602001600182015481525050815260200190600101906103de565b50505050905090565b60008090505b600260008373ffffffffffffffffffffffffffffffffffffffff1673ffffffffffffffffffffffffffffffffffffffff168152602001908152602001600020600101805490508110156105a3578273ffffffffffffffffffffffffffffffffffffffff16600260008473ffffffffffffffffffffffffffffffffffffffff1673ffffffffffffffffffffffffffffffffffffffff168152602001908152602001600020600101828154811061053057fe5b906000526020600020906002020160000160009054906101000a900473ffffffffffffffffffffffffffffffffffffffff1673ffffffffffffffffffffffffffffffffffffffff1614156105965760001515600460019054906101000a905050506105a3565b808060010191505061047f565b5060011515600460019054906101000a900460ff161515141561072b576000809054906101000a900473ffffffffffffffffffffffffffffffffffffffff1673ffffffffffffffffffffffffffffffffffffffff163373ffffffffffffffffffffffffffffffffffffffff161461061957600080fd5b6106216114a6565b82816000019073ffffffffffffffffffffffffffffffffffffffff16908173ffffffffffffffffffffffffffffffffffffffff168152505083816020018181525050600260008373ffffffffffffffffffffffffffffffffffffffff1673ffffffffffffffffffffffffffffffffffffffff168152602001908152602001600020600101819080600181540180825580915050906001820390600052602060002090600202016000909192909190915060008201518160000160006101000a81548173ffffffffffffffffffffffffffffffffffffffff021916908373ffffffffffffffffffffffffffffffffffffffff1602179055506020820151816001015550505050610734565b61073361146c565b5b505050565b806001908051906020019061074f9291906114d6565b5050565b60008060009054906101000a900473ffffffffffffffffffffffffffffffffffffffff1673ffffffffffffffffffffffffffffffffffffffff163373ffffffffffffffffffffffffffffffffffffffff16146107ae57600080fd5b8147116107ba57600080fd5b8273ffffffffffffffffffffffffffffffffffffffff166108fc839081150290604051600060405180830381858888f19350505050158015610800573d6000803e3d6000fd5b506001905092915050565b606060018054600181600116156101000203166002900480601f0160208091040260200160405190810160405280929190818152602001828054600181600116156101000203166002900480156108a35780601f10610878576101008083540402835291602001916108a3565b820191906000526020600020905b81548152906001019060200180831161088657829003601f168201915b5050505050905090565b60008090505b600380549050811015610b825760008090505b60026000600384815481106108d757fe5b9060005260206000200160009054906101000a900473ffffffffffffffffffffffffffffffffffffffff1673ffffffffffffffffffffffffffffffffffffffff1673ffffffffffffffffffffffffffffffffffffffff16815260200190815260200160002060010180549050811015610b74578273ffffffffffffffffffffffffffffffffffffffff16600260006003858154811061097257fe5b9060005260206000200160009054906101000a900473ffffffffffffffffffffffffffffffffffffffff1673ffffffffffffffffffffffffffffffffffffffff1673ffffffffffffffffffffffffffffffffffffffff16815260200190815260200160002060010182815481106109e557fe5b906000526020600020906002020160000160009054906101000a900473ffffffffffffffffffffffffffffffffffffffff1673ffffffffffffffffffffffffffffffffffffffff161415610b675760066002600060038581548110610a4657fe5b9060005260206000200160009054906101000a900473ffffffffffffffffffffffffffffffffffffffff1673ffffffffffffffffffffffffffffffffffffffff1673ffffffffffffffffffffffffffffffffffffffff1681526020019081526020016000206001018281548110610ab957fe5b9060005260206000209060020201908060018154018082558091505090600182039060005260206000209060020201600090919290919091506000820160009054906101000a900473ffffffffffffffffffffffffffffffffffffffff168160000160006101000a81548173ffffffffffffffffffffffffffffffffffffffff021916908373ffffffffffffffffffffffffffffffffffffffff160217905550600182015481600101555050505b80806001019150506108c6565b5080806001019150506108b3565b50610b8b6103ba565b5050565b60606005805480602002602001604051908101604052809291908181526020016000905b82821015610d5a5783829060005260206000209060040201604051806080016040529081600082018054600181600116156101000203166002900480601f016020809104026020016040519081016040528092919081815260200182805460018160011615610100020316600290048015610c6f5780601f10610c4457610100808354040283529160200191610c6f565b820191906000526020600020905b815481529060010190602001808311610c5257829003601f168201915b5050505050815260200160018201805480602002602001604051908101604052809291908181526020016000905b82821015610d2f57838290600052602060002090600202016040518060400160405290816000820160009054906101000a900473ffffffffffffffffffffffffffffffffffffffff1673ffffffffffffffffffffffffffffffffffffffff1673ffffffffffffffffffffffffffffffffffffffff16815260200160018201548152505081526020019060010190610c9d565b5050505081526020016002820154815260200160038201548152505081526020019060010190610bb3565b50505050905090565b60056000610d719190611556565b565b60008090505b600380549050811015610e8c5760056002600060038481548110610d9957fe5b9060005260206000200160009054906101000a900473ffffffffffffffffffffffffffffffffffffffff1673ffffffffffffffffffffffffffffffffffffffff1673ffffffffffffffffffffffffffffffffffffffff1681526020019081526020016000209080600181540180825580915050906001820390600052602060002090600402016000909192909190915060008201816000019080546001816001161561010002031660029004610e5092919061157a565b506001820181600101908054610e67929190611601565b5060028201548160020155600382015481600301555050508080600101915050610d79565b50610e95610b8f565b50565b60008060009054906101000a900473ffffffffffffffffffffffffffffffffffffffff1673ffffffffffffffffffffffffffffffffffffffff163373ffffffffffffffffffffffffffffffffffffffff1614610ef357600080fd5b600260008373ffffffffffffffffffffffffffffffffffffffff1673ffffffffffffffffffffffffffffffffffffffff16815260200190815260200160002060030154471015610f4257600080fd5b8273ffffffffffffffffffffffffffffffffffffffff166108fc600260008573ffffffffffffffffffffffffffffffffffffffff1673ffffffffffffffffffffffffffffffffffffffff168152602001908152602001600020600301549081150290604051600060405180830381858888f19350505050158015610fca573d6000803e3d6000fd5b506000600260008473ffffffffffffffffffffffffffffffffffffffff1673ffffffffffffffffffffffffffffffffffffffff1681526020019081526020016000206003018190555060405180602001604052806000815250600260008473ffffffffffffffffffffffffffffffffffffffff1673ffffffffffffffffffffffffffffffffffffffff16815260200190815260200160002060000190805190602001906110789291906114d6565b506000600260008473ffffffffffffffffffffffffffffffffffffffff1673ffffffffffffffffffffffffffffffffffffffff16815260200190815260200160002060020181905550600260008373ffffffffffffffffffffffffffffffffffffffff1673ffffffffffffffffffffffffffffffffffffffff168152602001908152602001600020600101600061110f91906116ca565b60008090505b6003805490508110156111d9578273ffffffffffffffffffffffffffffffffffffffff166003828154811061114657fe5b9060005260206000200160009054906101000a900473ffffffffffffffffffffffffffffffffffffffff1673ffffffffffffffffffffffffffffffffffffffff1614156111cc576003818154811061119a57fe5b9060005260206000200160006101000a81549073ffffffffffffffffffffffffffffffffffffffff02191690556111d9565b8080600101915050611115565b506001905092915050565b60008090505b600380549050811015611287578473ffffffffffffffffffffffffffffffffffffffff166003828154811061121b57fe5b9060005260206000200160009054906101000a900473ffffffffffffffffffffffffffffffffffffffff1673ffffffffffffffffffffffffffffffffffffffff16141561127a5760001515600460009054906101000a90505050611287565b80806001019150506111ea565b5060011515600460009054906101000a900460ff161515141561144d576000809054906101000a900473ffffffffffffffffffffffffffffffffffffffff1673ffffffffffffffffffffffffffffffffffffffff163373ffffffffffffffffffffffffffffffffffffffff16146112fd57600080fd5b82600260008673ffffffffffffffffffffffffffffffffffffffff1673ffffffffffffffffffffffffffffffffffffffff16815260200190815260200160002060000190805190602001906113539291906114d6565b5081600260008673ffffffffffffffffffffffffffffffffffffffff1673ffffffffffffffffffffffffffffffffffffffff1681526020019081526020016000206002018190555080600260008673ffffffffffffffffffffffffffffffffffffffff1673ffffffffffffffffffffffffffffffffffffffff1681526020019081526020016000206003018190555060038490806001815401808255809150509060018203906000526020600020016000909192909190916101000a81548173ffffffffffffffffffffffffffffffffffffffff021916908373ffffffffffffffffffffffffffffffffffffffff16021790555050611456565b611455611489565b5b50505050565b6006600061146a91906116ca565b565b6001600460016101000a81548160ff021916908315150217905550565b6001600460006101000a81548160ff021916908315150217905550565b6040518060400160405280600073ffffffffffffffffffffffffffffffffffffffff168152602001600081525090565b828054600181600116156101000203166002900490600052602060002090601f016020900481019282601f1061151757805160ff1916838001178555611545565b82800160010185558215611545579182015b82811115611544578251825591602001919060010190611529565b5b50905061155291906116ee565b5090565b50805460008255600402906000526020600020908101906115779190611713565b50565b828054600181600116156101000203166002900490600052602060002090601f016020900481019282601f106115b357805485556115f0565b828001600101855582156115f057600052602060002091601f016020900482015b828111156115ef5782548255916001019190600101906115d4565b5b5090506115fd91906116ee565b5090565b8280548282559060005260206000209060020281019282156116b95760005260206000209160020282015b828111156116b85782826000820160009054906101000a900473ffffffffffffffffffffffffffffffffffffffff168160000160006101000a81548173ffffffffffffffffffffffffffffffffffffffff021916908373ffffffffffffffffffffffffffffffffffffffff1602179055506001820154816001015550509160020191906002019061162c565b5b5090506116c69190611762565b5090565b50805460008255600202906000526020600020908101906116eb9190611762565b50565b61171091905b8082111561170c5760008160009055506001016116f4565b5090565b90565b61175f91905b8082111561175b576000808201600061173291906117b0565b60018201600061174291906116ca565b6002820160009055600382016000905550600401611719565b5090565b90565b6117ad91905b808211156117a957600080820160006101000a81549073ffffffffffffffffffffffffffffffffffffffff0219169055600182016000905550600201611768565b5090565b90565b50805460018160011615610100020316600290046000825580601f106117d657506117f5565b601f0160209004906000526020600020908101906117f491906116ee565b5b50565b60008135905061180781611f85565b92915050565b60008135905061181c81611f9c565b92915050565b600082601f83011261183357600080fd5b813561184661184182611dc9565b611d9c565b9150808252602083016020830185838301111561186257600080fd5b61186d838284611f32565b50505092915050565b60008135905061188581611fb3565b92915050565b60006020828403121561189d57600080fd5b60006118ab848285016117f8565b91505092915050565b600080604083850312156118c757600080fd5b60006118d58582860161180d565b92505060206118e68582860161180d565b9150509250929050565b6000806000806080858703121561190657600080fd5b60006119148782880161180d565b945050602085013567ffffffffffffffff81111561193157600080fd5b61193d87828801611822565b935050604061194e87828801611876565b925050606061195f87828801611876565b91505092959194509250565b6000806040838503121561197e57600080fd5b600061198c8582860161180d565b925050602061199d85828601611876565b9150509250929050565b6000806000606084860312156119bc57600080fd5b60006119ca8682870161180d565b93505060206119db86828701611876565b92505060406119ec8682870161180d565b9150509250925092565b600060208284031215611a0857600080fd5b600082013567ffffffffffffffff811115611a2257600080fd5b611a2e84828501611822565b91505092915050565b600080600060608486031215611a4c57600080fd5b6000611a5a86828701611876565b9350506020611a6b8682870161180d565b9250506040611a7c8682870161180d565b9150509250925092565b6000611a928383611c73565b905092915050565b6000611aa68383611cdd565b60408301905092915050565b611abb81611eea565b82525050565b6000611acc82611e25565b611ad68185611e83565b935083602082028501611ae885611df5565b8060005b85811015611b245784840389528151611b058582611a86565b9450611b1083611e5c565b925060208a01995050600181019050611aec565b50829750879550505050505092915050565b6000611b4182611e3b565b611b4b8185611ea5565b9350611b5683611e15565b8060005b83811015611b87578151611b6e8882611a9a565b9750611b7983611e76565b925050600181019050611b5a565b5085935050505092915050565b6000611b9f82611e30565b611ba98185611e94565b9350611bb483611e05565b8060005b83811015611be5578151611bcc8882611a9a565b9750611bd783611e69565b925050600181019050611bb8565b5085935050505092915050565b611bfb81611efc565b82525050565b6000611c0c82611e51565b611c168185611ec7565b9350611c26818560208601611f41565b611c2f81611f74565b840191505092915050565b6000611c4582611e46565b611c4f8185611eb6565b9350611c5f818560208601611f41565b611c6881611f74565b840191505092915050565b60006080830160008301518482036000860152611c908282611c3a565b91505060208301518482036020860152611caa8282611b94565b9150506040830151611cbf6040860182611d0c565b506060830151611cd26060860182611d0c565b508091505092915050565b604082016000820151611cf36000850182611ab2565b506020820151611d066020850182611d0c565b50505050565b611d1581611f28565b82525050565b60006020820190508181036000830152611d358184611ac1565b905092915050565b60006020820190508181036000830152611d578184611b36565b905092915050565b6000602082019050611d746000830184611bf2565b92915050565b60006020820190508181036000830152611d948184611c01565b905092915050565b6000604051905081810181811067ffffffffffffffff82111715611dbf57600080fd5b8060405250919050565b600067ffffffffffffffff821115611de057600080fd5b601f19601f8301169050602081019050919050565b6000819050602082019050919050565b6000819050602082019050919050565b6000819050602082019050919050565b600081519050919050565b600081519050919050565b600081519050919050565b600081519050919050565b600081519050919050565b6000602082019050919050565b6000602082019050919050565b6000602082019050919050565b600082825260208201905092915050565b600082825260208201905092915050565b600082825260208201905092915050565b600082825260208201905092915050565b600082825260208201905092915050565b6000611ee382611f08565b9050919050565b6000611ef582611f08565b9050919050565b60008115159050919050565b600073ffffffffffffffffffffffffffffffffffffffff82169050919050565b6000819050919050565b82818337600083830152505050565b60005b83811015611f5f578082015181840152602081019050611f44565b83811115611f6e576000848401525b50505050565b6000601f19601f8301169050919050565b611f8e81611ed8565b8114611f9957600080fd5b50565b611fa581611eea565b8114611fb057600080fd5b50565b611fbc81611f28565b8114611fc757600080fd5b5056fea365627a7a72315820cf553435a43311a299b5723b69281c2ac412a09f5ebb8f32ab984d5a8604a3546c6578706572696d656e74616cf564736f6c63430005100040",
  "source": "pragma solidity >=0.4.21 <0.7.0;\r\npragma experimental ABIEncoderV2;\r\n\r\ncontract Main {\r\n    \r\n    address initialCreator; \r\n    constructor() payable public {\r\n        initialCreator = msg.sender;\r\n    }\r\n    \r\n    //Ipfs thing\r\n  string storedData;\r\n\r\n  function set(string memory x) public {\r\n    storedData = x;\r\n  }\r\n\r\n  function get() public view returns (string memory) {\r\n    return storedData;\r\n  }\r\n \r\n  function () external payable {\r\n\r\n  }\r\n    \r\n    //These are just defining data stuff... *******\r\n    struct submission {\r\n        address payable submitter;\r\n        uint256 accuracy;\r\n    }\r\n    \r\n    struct bounty {\r\n        string name;\r\n        submission[] submissions;\r\n        uint256 requirement;\r\n        uint256 bountyAmount;\r\n    }\r\n    \r\n    mapping(address => bounty) bountyHashTable;\r\n    address payable[] bountyAddresses;\r\n    \r\n    bool bountyTracker = true;\r\n    function resetBountyTracker() private {\r\n        bountyTracker = true;\r\n    }\r\n    // ****************\r\n    \r\n    \r\n    //First main function, add a new bounty (in this contract i refer to _address as the bounty creator, _submitter as a test case submitter)\r\n    function addNewBounty(address payable _address, string memory _name, uint256 _requirement, uint256 _bountyAmount) public {\r\n        for (uint256 i = 0; i < bountyAddresses.length; i++) { \r\n            if (bountyAddresses[i] == _address) {\r\n                bountyTracker == false;\r\n                break;\r\n            }\r\n        }\r\n        if (bountyTracker == true) {\r\n            require (msg.sender == initialCreator);\r\n            bountyHashTable[_address].name = _name;\r\n            bountyHashTable[_address].requirement = _requirement;\r\n            bountyHashTable[_address].bountyAmount = _bountyAmount;\r\n            bountyAddresses.push(_address);\r\n        } else {\r\n            resetBountyTracker();\r\n        }\r\n    }\r\n    \r\n    //Helper function and bool. No endpoint *****\r\n    bool submissionTracker = true;\r\n    function resetSubmissionTracker() private {\r\n        submissionTracker = true;\r\n    }\r\n    //***\r\n    \r\n    //Adding a new submission - see main function comment for parameters\r\n    function addNewSubmission(uint256 _accuracy, address payable _submitter, address payable _address) public {\r\n            for (uint256 k = 0; k < bountyHashTable[_address].submissions.length; k++) {\r\n                if (bountyHashTable[_address].submissions[k].submitter == _submitter) {\r\n                    submissionTracker == false;\r\n                    break;\r\n                }\r\n        }\r\n        \r\n        if (submissionTracker == true) {\r\n            require (msg.sender == initialCreator);\r\n            submission memory sub;\r\n            sub.submitter = _submitter;\r\n            sub.accuracy = _accuracy;\r\n            bountyHashTable[_address].submissions.push(sub);\r\n        } else {\r\n            resetSubmissionTracker();\r\n        }\r\n    }\r\n    \r\n    //Helper function - _amount is in wei BTW - no endpoint please\r\n    function payment(address payable _submitter, uint256  _amount)public payable returns (bool) {\r\n        require (msg.sender == initialCreator);\r\n        require (address(this).balance > _amount);\r\n        _submitter.transfer(_amount);\r\n        return true;\r\n    }\r\n    //here we need the address of the user who made the bounty, the submitter that is getting partial payment, it updates the amount in bounty too\r\n    function partialPayment(address payable _submitter, uint256 _amount, address payable _address) public payable returns (bool) {\r\n        require (msg.sender == initialCreator);\r\n        payment(_submitter, _amount);\r\n        bountyHashTable[_address].bountyAmount = bountyHashTable[_address].bountyAmount - _amount;\r\n        return true;\r\n    }\r\n    \r\n    //This completes the full payment with only submitter and bounty maker address, then deletes the bounty\r\n    function fullPayment(address payable _submitter, address payable _address) public payable returns (bool){\r\n        require (msg.sender == initialCreator);\r\n        require (address(this).balance >= bountyHashTable[_address].bountyAmount);\r\n        _submitter.transfer(bountyHashTable[_address].bountyAmount);\r\n        bountyHashTable[_address].bountyAmount = 0;\r\n        bountyHashTable[_address].name = \"\";\r\n        bountyHashTable[_address].requirement = 0;\r\n        delete bountyHashTable[_address].submissions;\r\n        \r\n        for (uint256 l = 0; l < bountyAddresses.length; l++) {\r\n            if (bountyAddresses[l] == _address) {\r\n                delete bountyAddresses[l];\r\n                break;\r\n            }\r\n        }\r\n        return true;\r\n    }\r\n    \r\n    //Helper function and array, do not make endpoint, used in the main function of retrieving bounties\r\n    bounty[] tempBountyArray;\r\n    function returnTempBountyArray() public view returns (bounty[] memory) {\r\n        return tempBountyArray;\r\n    }\r\n\r\n    function deleteTempBountyArray() public {\r\n        delete tempBountyArray;\r\n    }\r\n    \r\n    //Main retriever function, returns results then clears it too - this is obv an endpoint -- also, this technically returns all submissions for all given bounties\r\n    function retreieveTempBountyArray() public {\r\n        for (uint256 j = 0; j < bountyAddresses.length; j++) {\r\n            tempBountyArray.push(bountyHashTable[bountyAddresses[j]]);\r\n        }\r\n        returnTempBountyArray();\r\n    }\r\n    \r\n    //This is a helper function and array - do not pay attention or endpoint\r\n    submission[] tempSubmissionArray;\r\n    function returnTempSubmissionArray() public view returns (submission[] memory) {\r\n        return tempSubmissionArray;\r\n    }\r\n    function deleteTempSubmissionArray() public {\r\n        delete tempSubmissionArray;\r\n    }\r\n    \r\n    //This function for endpoint finds all the submissions for any given address and returns an array of it including their accuracy and the name of the bounty \r\n    function retrieveTempSubmissionArray(address _submitter) public {\r\n        for (uint256 p = 0; p < bountyAddresses.length; p++) {\r\n            for (uint256 u = 0; u < bountyHashTable[bountyAddresses[p]].submissions.length; u++) {\r\n                if (bountyHashTable[bountyAddresses[p]].submissions[u].submitter == _submitter) {\r\n                    tempSubmissionArray.push( bountyHashTable[bountyAddresses[p]].submissions[u]);\r\n                }\r\n            }\r\n        }\r\n        returnTempSubmissionArray();\r\n    }\r\n    \r\n}\r\n",
  "sourcePath": "C:\\Users\\marko\\Documents\\GitHub\\Hack-The-Northeast\\contracts\\Main.sol",
  "compiler": {
    "name": "solc",
    "version": "0.5.16+commit.9c3226ce.Emscripten.clang"
  },
  "schemaVersion": "3.0.23",
  "updatedAt": "2020-06-06T16:45:15.523Z",
  "networkType": "ethereum",
  "devdoc": {
    "methods": {}
  },
  "userdoc": {
    "methods": {}
  }
}