{
  "contractName": "Main",
  "abi": [
    {
      "inputs": [],
      "payable": true,
      "stateMutability": "payable",
      "type": "constructor"
    },
    {
      "payable": true,
      "stateMutability": "payable",
      "type": "fallback"
    },
    {
      "constant": false,
      "inputs": [
        {
          "internalType": "string",
          "name": "x",
          "type": "string"
        }
      ],
      "name": "set",
      "outputs": [],
      "payable": false,
      "stateMutability": "nonpayable",
      "type": "function"
    },
    {
      "constant": true,
      "inputs": [],
      "name": "get",
      "outputs": [
        {
          "internalType": "string",
          "name": "",
          "type": "string"
        }
      ],
      "payable": false,
      "stateMutability": "view",
      "type": "function"
    },
    {
      "constant": true,
      "inputs": [],
      "name": "returnBountyAddresses",
      "outputs": [
        {
          "internalType": "address payable[]",
          "name": "",
          "type": "address[]"
        }
      ],
      "payable": false,
      "stateMutability": "view",
      "type": "function"
    },
    {
      "constant": false,
      "inputs": [
        {
          "internalType": "address payable",
          "name": "_address",
          "type": "address"
        },
        {
          "internalType": "string",
          "name": "_name",
          "type": "string"
        },
        {
          "internalType": "uint256",
          "name": "_requirement",
          "type": "uint256"
        },
        {
          "internalType": "uint256",
          "name": "_bountyAmount",
          "type": "uint256"
        }
      ],
      "name": "addNewBounty",
      "outputs": [],
      "payable": false,
      "stateMutability": "nonpayable",
      "type": "function"
    },
    {
      "constant": false,
      "inputs": [
        {
          "internalType": "uint256",
          "name": "_accuracy",
          "type": "uint256"
        },
        {
          "internalType": "address payable",
          "name": "_submitter",
          "type": "address"
        },
        {
          "internalType": "address payable",
          "name": "_address",
          "type": "address"
        }
      ],
      "name": "addNewSubmission",
      "outputs": [],
      "payable": false,
      "stateMutability": "nonpayable",
      "type": "function"
    },
    {
      "constant": false,
      "inputs": [
        {
          "internalType": "address payable",
          "name": "_submitter",
          "type": "address"
        },
        {
          "internalType": "uint256",
          "name": "_amount",
          "type": "uint256"
        }
      ],
      "name": "payment",
      "outputs": [
        {
          "internalType": "bool",
          "name": "",
          "type": "bool"
        }
      ],
      "payable": true,
      "stateMutability": "payable",
      "type": "function"
    },
    {
      "constant": false,
      "inputs": [
        {
          "internalType": "address payable",
          "name": "_submitter",
          "type": "address"
        },
        {
          "internalType": "uint256",
          "name": "_amount",
          "type": "uint256"
        },
        {
          "internalType": "address payable",
          "name": "_address",
          "type": "address"
        }
      ],
      "name": "partialPayment",
      "outputs": [
        {
          "internalType": "bool",
          "name": "",
          "type": "bool"
        }
      ],
      "payable": true,
      "stateMutability": "payable",
      "type": "function"
    },
    {
      "constant": false,
      "inputs": [
        {
          "internalType": "address payable",
          "name": "_submitter",
          "type": "address"
        },
        {
          "internalType": "address payable",
          "name": "_address",
          "type": "address"
        }
      ],
      "name": "fullPayment",
      "outputs": [
        {
          "internalType": "bool",
          "name": "",
          "type": "bool"
        }
      ],
      "payable": true,
      "stateMutability": "payable",
      "type": "function"
    },
    {
      "constant": true,
      "inputs": [],
      "name": "returnTempBountyArray",
      "outputs": [
        {
          "components": [
            {
              "internalType": "string",
              "name": "name",
              "type": "string"
            },
            {
              "components": [
                {
                  "internalType": "address payable",
                  "name": "submitter",
                  "type": "address"
                },
                {
                  "internalType": "uint256",
                  "name": "accuracy",
                  "type": "uint256"
                },
                {
                  "internalType": "string",
                  "name": "bountyName",
                  "type": "string"
                }
              ],
              "internalType": "struct Main.submission[]",
              "name": "submissions",
              "type": "tuple[]"
            },
            {
              "internalType": "uint256",
              "name": "requirement",
              "type": "uint256"
            },
            {
              "internalType": "uint256",
              "name": "bountyAmount",
              "type": "uint256"
            }
          ],
          "internalType": "struct Main.bounty[]",
          "name": "",
          "type": "tuple[]"
        }
      ],
      "payable": false,
      "stateMutability": "view",
      "type": "function"
    },
    {
      "constant": false,
      "inputs": [],
      "name": "deleteTempBountyArray",
      "outputs": [],
      "payable": false,
      "stateMutability": "nonpayable",
      "type": "function"
    },
    {
      "constant": false,
      "inputs": [],
      "name": "retreieveTempBountyArray",
      "outputs": [],
      "payable": false,
      "stateMutability": "nonpayable",
      "type": "function"
    },
    {
      "constant": true,
      "inputs": [],
      "name": "returnTempSubmissionArray",
      "outputs": [
        {
          "components": [
            {
              "internalType": "address payable",
              "name": "submitter",
              "type": "address"
            },
            {
              "internalType": "uint256",
              "name": "accuracy",
              "type": "uint256"
            },
            {
              "internalType": "string",
              "name": "bountyName",
              "type": "string"
            }
          ],
          "internalType": "struct Main.submission[]",
          "name": "",
          "type": "tuple[]"
        }
      ],
      "payable": false,
      "stateMutability": "view",
      "type": "function"
    },
    {
      "constant": false,
      "inputs": [],
      "name": "deleteTempSubmissionArray",
      "outputs": [],
      "payable": false,
      "stateMutability": "nonpayable",
      "type": "function"
    },
    {
      "constant": false,
      "inputs": [
        {
          "internalType": "address",
          "name": "_submitter",
          "type": "address"
        }
      ],
      "name": "retrieveTempSubmissionArray",
      "outputs": [],
      "payable": false,
      "stateMutability": "nonpayable",
      "type": "function"
    }
  ],
  "bytecode": "0x60806040526001600460006101000a81548160ff0219169083151502179055506001600460016101000a81548160ff021916908315150217905550336000806101000a81548173ffffffffffffffffffffffffffffffffffffffff021916908373ffffffffffffffffffffffffffffffffffffffff160217905550612530806100896000396000f3fe6080604052600436106100dd5760003560e01c80637b6514911161007f578063ada0b2fe11610059578063ada0b2fe1461027d578063d500714314610294578063e91edaac146102c4578063f555a6ad146102ed576100dd565b80637b65149114610212578063a484b8b21461023b578063aa24651514610266576100dd565b80634e657c43116100bb5780634e657c43146101655780634ed3885e1461018e57806367a09c23146101b75780636d4ce63c146101e7576100dd565b80631b4f91fa146100df57806330a607811461010a5780634d7bb00f1461013a575b005b3480156100eb57600080fd5b506100f4610304565b60405161010191906121e3565b60405180910390f35b610124600480360361011f9190810190611dae565b610392565b6040516101319190612249565b60405180910390f35b34801561014657600080fd5b5061014f61048e565b60405161015c9190612227565b60405180910390f35b34801561017157600080fd5b5061018c60048036036101879190810190611e3e565b6105ef565b005b34801561019a57600080fd5b506101b560048036036101b09190810190611dfd565b6109af565b005b6101d160048036036101cc9190810190611d72565b6109c9565b6040516101de9190612249565b60405180910390f35b3480156101f357600080fd5b506101fc610a81565b6040516102099190612264565b60405180910390f35b34801561021e57600080fd5b5061023960048036036102349190810190611c92565b610b23565b005b34801561024757600080fd5b50610250610e2d565b60405161025d9190612205565b60405180910390f35b34801561027257600080fd5b5061027b6110a3565b005b34801561028957600080fd5b506102926110b3565b005b6102ae60048036036102a99190810190611cbb565b6111d8565b6040516102bb9190612249565b60405180910390f35b3480156102d057600080fd5b506102eb60048036036102e69190810190611cf7565b611524565b005b3480156102f957600080fd5b506103026117a4565b005b6060600380548060200260200160405190810160405280929190818152602001828054801561038857602002820191906000526020600020905b8160009054906101000a900473ffffffffffffffffffffffffffffffffffffffff1673ffffffffffffffffffffffffffffffffffffffff168152602001906001019080831161033e575b5050505050905090565b60008060009054906101000a900473ffffffffffffffffffffffffffffffffffffffff1673ffffffffffffffffffffffffffffffffffffffff163373ffffffffffffffffffffffffffffffffffffffff16146103ed57600080fd5b6103f784846109c9565b5082600260008473ffffffffffffffffffffffffffffffffffffffff1673ffffffffffffffffffffffffffffffffffffffff1681526020019081526020016000206003015403600260008473ffffffffffffffffffffffffffffffffffffffff1673ffffffffffffffffffffffffffffffffffffffff16815260200190815260200160002060030181905550600190509392505050565b60606006805480602002602001604051908101604052809291908181526020016000905b828210156105e657838290600052602060002090600302016040518060600160405290816000820160009054906101000a900473ffffffffffffffffffffffffffffffffffffffff1673ffffffffffffffffffffffffffffffffffffffff1673ffffffffffffffffffffffffffffffffffffffff16815260200160018201548152602001600282018054600181600116156101000203166002900480601f0160208091040260200160405190810160405280929190818152602001828054600181600116156101000203166002900480156105ce5780601f106105a3576101008083540402835291602001916105ce565b820191906000526020600020905b8154815290600101906020018083116105b157829003601f168201915b505050505081525050815260200190600101906104b2565b50505050905090565b60008090505b600260008373ffffffffffffffffffffffffffffffffffffffff1673ffffffffffffffffffffffffffffffffffffffff16815260200190815260200160002060010180549050811015610719578273ffffffffffffffffffffffffffffffffffffffff16600260008473ffffffffffffffffffffffffffffffffffffffff1673ffffffffffffffffffffffffffffffffffffffff16815260200190815260200160002060010182815481106106a657fe5b906000526020600020906003020160000160009054906101000a900473ffffffffffffffffffffffffffffffffffffffff1673ffffffffffffffffffffffffffffffffffffffff16141561070c5760001515600460019054906101000a90505050610719565b80806001019150506105f5565b5060011515600460019054906101000a900460ff16151514156109a1576000809054906101000a900473ffffffffffffffffffffffffffffffffffffffff1673ffffffffffffffffffffffffffffffffffffffff163373ffffffffffffffffffffffffffffffffffffffff161461078f57600080fd5b6107976117ee565b82816000019073ffffffffffffffffffffffffffffffffffffffff16908173ffffffffffffffffffffffffffffffffffffffff168152505083816020018181525050600260008373ffffffffffffffffffffffffffffffffffffffff1673ffffffffffffffffffffffffffffffffffffffff1681526020019081526020016000206000018054600181600116156101000203166002900480601f0160208091040260200160405190810160405280929190818152602001828054600181600116156101000203166002900480156108af5780601f10610884576101008083540402835291602001916108af565b820191906000526020600020905b81548152906001019060200180831161089257829003601f168201915b50505050508160400181905250600260008373ffffffffffffffffffffffffffffffffffffffff1673ffffffffffffffffffffffffffffffffffffffff168152602001908152602001600020600101819080600181540180825580915050906001820390600052602060002090600302016000909192909190915060008201518160000160006101000a81548173ffffffffffffffffffffffffffffffffffffffff021916908373ffffffffffffffffffffffffffffffffffffffff160217905550602082015181600101556040820151816002019080519060200190610997929190611825565b50505050506109aa565b6109a96117b4565b5b505050565b80600190805190602001906109c59291906118a5565b5050565b60008060009054906101000a900473ffffffffffffffffffffffffffffffffffffffff1673ffffffffffffffffffffffffffffffffffffffff163373ffffffffffffffffffffffffffffffffffffffff1614610a2457600080fd5b814711610a3057600080fd5b8273ffffffffffffffffffffffffffffffffffffffff166108fc839081150290604051600060405180830381858888f19350505050158015610a76573d6000803e3d6000fd5b506001905092915050565b606060018054600181600116156101000203166002900480601f016020809104026020016040519081016040528092919081815260200182805460018160011615610100020316600290048015610b195780601f10610aee57610100808354040283529160200191610b19565b820191906000526020600020905b815481529060010190602001808311610afc57829003601f168201915b5050505050905090565b60008090505b600380549050811015610e205760008090505b6002600060038481548110610b4d57fe5b9060005260206000200160009054906101000a900473ffffffffffffffffffffffffffffffffffffffff1673ffffffffffffffffffffffffffffffffffffffff1673ffffffffffffffffffffffffffffffffffffffff16815260200190815260200160002060010180549050811015610e12578273ffffffffffffffffffffffffffffffffffffffff166002600060038581548110610be857fe5b9060005260206000200160009054906101000a900473ffffffffffffffffffffffffffffffffffffffff1673ffffffffffffffffffffffffffffffffffffffff1673ffffffffffffffffffffffffffffffffffffffff1681526020019081526020016000206001018281548110610c5b57fe5b906000526020600020906003020160000160009054906101000a900473ffffffffffffffffffffffffffffffffffffffff1673ffffffffffffffffffffffffffffffffffffffff161415610e055760066002600060038581548110610cbc57fe5b9060005260206000200160009054906101000a900473ffffffffffffffffffffffffffffffffffffffff1673ffffffffffffffffffffffffffffffffffffffff1673ffffffffffffffffffffffffffffffffffffffff1681526020019081526020016000206001018281548110610d2f57fe5b9060005260206000209060030201908060018154018082558091505090600182039060005260206000209060030201600090919290919091506000820160009054906101000a900473ffffffffffffffffffffffffffffffffffffffff168160000160006101000a81548173ffffffffffffffffffffffffffffffffffffffff021916908373ffffffffffffffffffffffffffffffffffffffff1602179055506001820154816001015560028201816002019080546001816001161561010002031660029004610e00929190611925565b505050505b8080600101915050610b3c565b508080600101915050610b29565b50610e2961048e565b5050565b60606005805480602002602001604051908101604052809291908181526020016000905b8282101561109a5783829060005260206000209060040201604051806080016040529081600082018054600181600116156101000203166002900480601f016020809104026020016040519081016040528092919081815260200182805460018160011615610100020316600290048015610f0d5780601f10610ee257610100808354040283529160200191610f0d565b820191906000526020600020905b815481529060010190602001808311610ef057829003601f168201915b5050505050815260200160018201805480602002602001604051908101604052809291908181526020016000905b8282101561106f57838290600052602060002090600302016040518060600160405290816000820160009054906101000a900473ffffffffffffffffffffffffffffffffffffffff1673ffffffffffffffffffffffffffffffffffffffff1673ffffffffffffffffffffffffffffffffffffffff16815260200160018201548152602001600282018054600181600116156101000203166002900480601f0160208091040260200160405190810160405280929190818152602001828054600181600116156101000203166002900480156110575780601f1061102c57610100808354040283529160200191611057565b820191906000526020600020905b81548152906001019060200180831161103a57829003601f168201915b50505050508152505081526020019060010190610f3b565b5050505081526020016002820154815260200160038201548152505081526020019060010190610e51565b50505050905090565b600560006110b191906119ac565b565b60008090505b6003805490508110156111cc57600560026000600384815481106110d957fe5b9060005260206000200160009054906101000a900473ffffffffffffffffffffffffffffffffffffffff1673ffffffffffffffffffffffffffffffffffffffff1673ffffffffffffffffffffffffffffffffffffffff1681526020019081526020016000209080600181540180825580915050906001820390600052602060002090600402016000909192909190915060008201816000019080546001816001161561010002031660029004611190929190611925565b5060018201816001019080546111a79291906119d0565b50600282015481600201556003820154816003015550505080806001019150506110b9565b506111d5610e2d565b50565b60008060009054906101000a900473ffffffffffffffffffffffffffffffffffffffff1673ffffffffffffffffffffffffffffffffffffffff163373ffffffffffffffffffffffffffffffffffffffff161461123357600080fd5b600260008373ffffffffffffffffffffffffffffffffffffffff1673ffffffffffffffffffffffffffffffffffffffff1681526020019081526020016000206003015447101561128257600080fd5b8273ffffffffffffffffffffffffffffffffffffffff166108fc600260008573ffffffffffffffffffffffffffffffffffffffff1673ffffffffffffffffffffffffffffffffffffffff168152602001908152602001600020600301549081150290604051600060405180830381858888f1935050505015801561130a573d6000803e3d6000fd5b506000600260008473ffffffffffffffffffffffffffffffffffffffff1673ffffffffffffffffffffffffffffffffffffffff1681526020019081526020016000206003018190555060405180602001604052806000815250600260008473ffffffffffffffffffffffffffffffffffffffff1673ffffffffffffffffffffffffffffffffffffffff16815260200190815260200160002060000190805190602001906113b89291906118a5565b506000600260008473ffffffffffffffffffffffffffffffffffffffff1673ffffffffffffffffffffffffffffffffffffffff16815260200190815260200160002060020181905550600260008373ffffffffffffffffffffffffffffffffffffffff1673ffffffffffffffffffffffffffffffffffffffff168152602001908152602001600020600101600061144f9190611ac1565b60008090505b600380549050811015611519578273ffffffffffffffffffffffffffffffffffffffff166003828154811061148657fe5b9060005260206000200160009054906101000a900473ffffffffffffffffffffffffffffffffffffffff1673ffffffffffffffffffffffffffffffffffffffff16141561150c57600381815481106114da57fe5b9060005260206000200160006101000a81549073ffffffffffffffffffffffffffffffffffffffff0219169055611519565b8080600101915050611455565b506001905092915050565b60008090505b6003805490508110156115cf578473ffffffffffffffffffffffffffffffffffffffff166003828154811061155b57fe5b9060005260206000200160009054906101000a900473ffffffffffffffffffffffffffffffffffffffff1673ffffffffffffffffffffffffffffffffffffffff1614156115c2576000600460006101000a81548160ff0219169083151502179055506115cf565b808060010191505061152a565b5060011515600460009054906101000a900460ff1615151415611795576000809054906101000a900473ffffffffffffffffffffffffffffffffffffffff1673ffffffffffffffffffffffffffffffffffffffff163373ffffffffffffffffffffffffffffffffffffffff161461164557600080fd5b82600260008673ffffffffffffffffffffffffffffffffffffffff1673ffffffffffffffffffffffffffffffffffffffff168152602001908152602001600020600001908051906020019061169b9291906118a5565b5081600260008673ffffffffffffffffffffffffffffffffffffffff1673ffffffffffffffffffffffffffffffffffffffff1681526020019081526020016000206002018190555080600260008673ffffffffffffffffffffffffffffffffffffffff1673ffffffffffffffffffffffffffffffffffffffff1681526020019081526020016000206003018190555060038490806001815401808255809150509060018203906000526020600020016000909192909190916101000a81548173ffffffffffffffffffffffffffffffffffffffff021916908373ffffffffffffffffffffffffffffffffffffffff1602179055505061179e565b61179d6117d1565b5b50505050565b600660006117b29190611ac1565b565b6001600460016101000a81548160ff021916908315150217905550565b6001600460006101000a81548160ff021916908315150217905550565b6040518060600160405280600073ffffffffffffffffffffffffffffffffffffffff16815260200160008152602001606081525090565b828054600181600116156101000203166002900490600052602060002090601f016020900481019282601f1061186657805160ff1916838001178555611894565b82800160010185558215611894579182015b82811115611893578251825591602001919060010190611878565b5b5090506118a19190611ae5565b5090565b828054600181600116156101000203166002900490600052602060002090601f016020900481019282601f106118e657805160ff1916838001178555611914565b82800160010185558215611914579182015b828111156119135782518255916020019190600101906118f8565b5b5090506119219190611ae5565b5090565b828054600181600116156101000203166002900490600052602060002090601f016020900481019282601f1061195e578054855561199b565b8280016001018555821561199b57600052602060002091601f016020900482015b8281111561199a57825482559160010191906001019061197f565b5b5090506119a89190611ae5565b5090565b50805460008255600402906000526020600020908101906119cd9190611b0a565b50565b828054828255906000526020600020906003028101928215611ab05760005260206000209160030282015b82811115611aaf5782826000820160009054906101000a900473ffffffffffffffffffffffffffffffffffffffff168160000160006101000a81548173ffffffffffffffffffffffffffffffffffffffff021916908373ffffffffffffffffffffffffffffffffffffffff1602179055506001820154816001015560028201816002019080546001816001161561010002031660029004611a9d929190611925565b505050916003019190600301906119fb565b5b509050611abd9190611b59565b5090565b5080546000825560030290600052602060002090810190611ae29190611b59565b50565b611b0791905b80821115611b03576000816000905550600101611aeb565b5090565b90565b611b5691905b80821115611b525760008082016000611b299190611bb7565b600182016000611b399190611ac1565b6002820160009055600382016000905550600401611b10565b5090565b90565b611bb491905b80821115611bb057600080820160006101000a81549073ffffffffffffffffffffffffffffffffffffffff02191690556001820160009055600282016000611ba79190611bb7565b50600301611b5f565b5090565b90565b50805460018160011615610100020316600290046000825580601f10611bdd5750611bfc565b601f016020900490600052602060002090810190611bfb9190611ae5565b5b50565b600081359050611c0e816124a8565b92915050565b600081359050611c23816124bf565b92915050565b600082601f830112611c3a57600080fd5b8135611c4d611c48826122b3565b612286565b91508082526020830160208301858383011115611c6957600080fd5b611c74838284612455565b50505092915050565b600081359050611c8c816124d6565b92915050565b600060208284031215611ca457600080fd5b6000611cb284828501611bff565b91505092915050565b60008060408385031215611cce57600080fd5b6000611cdc85828601611c14565b9250506020611ced85828601611c14565b9150509250929050565b60008060008060808587031215611d0d57600080fd5b6000611d1b87828801611c14565b945050602085013567ffffffffffffffff811115611d3857600080fd5b611d4487828801611c29565b9350506040611d5587828801611c7d565b9250506060611d6687828801611c7d565b91505092959194509250565b60008060408385031215611d8557600080fd5b6000611d9385828601611c14565b9250506020611da485828601611c7d565b9150509250929050565b600080600060608486031215611dc357600080fd5b6000611dd186828701611c14565b9350506020611de286828701611c7d565b9250506040611df386828701611c14565b9150509250925092565b600060208284031215611e0f57600080fd5b600082013567ffffffffffffffff811115611e2957600080fd5b611e3584828501611c29565b91505092915050565b600080600060608486031215611e5357600080fd5b6000611e6186828701611c7d565b9350506020611e7286828701611c14565b9250506040611e8386828701611c14565b9150509250925092565b6000611e998383611ecd565b60208301905092915050565b6000611eb1838361211a565b905092915050565b6000611ec58383612184565b905092915050565b611ed68161240d565b82525050565b6000611ee78261231f565b611ef18185612395565b9350611efc836122df565b8060005b83811015611f2d578151611f148882611e8d565b9750611f1f83612361565b925050600181019050611f00565b5085935050505092915050565b6000611f458261232a565b611f4f81856123a6565b935083602082028501611f61856122ef565b8060005b85811015611f9d5784840389528151611f7e8582611ea5565b9450611f898361236e565b925060208a01995050600181019050611f65565b50829750879550505050505092915050565b6000611fba82612340565b611fc481856123c8565b935083602082028501611fd68561230f565b8060005b858110156120125784840389528151611ff38582611eb9565b9450611ffe83612388565b925060208a01995050600181019050611fda565b50829750879550505050505092915050565b600061202f82612335565b61203981856123b7565b93508360208202850161204b856122ff565b8060005b8581101561208757848403895281516120688582611eb9565b94506120738361237b565b925060208a0199505060018101905061204f565b50829750879550505050505092915050565b6120a28161241f565b82525050565b60006120b382612356565b6120bd81856123ea565b93506120cd818560208601612464565b6120d681612497565b840191505092915050565b60006120ec8261234b565b6120f681856123d9565b9350612106818560208601612464565b61210f81612497565b840191505092915050565b6000608083016000830151848203600086015261213782826120e1565b915050602083015184820360208601526121518282612024565b915050604083015161216660408601826121d4565b50606083015161217960608601826121d4565b508091505092915050565b600060608301600083015161219c6000860182611ecd565b5060208301516121af60208601826121d4565b50604083015184820360408601526121c782826120e1565b9150508091505092915050565b6121dd8161244b565b82525050565b600060208201905081810360008301526121fd8184611edc565b905092915050565b6000602082019050818103600083015261221f8184611f3a565b905092915050565b600060208201905081810360008301526122418184611faf565b905092915050565b600060208201905061225e6000830184612099565b92915050565b6000602082019050818103600083015261227e81846120a8565b905092915050565b6000604051905081810181811067ffffffffffffffff821117156122a957600080fd5b8060405250919050565b600067ffffffffffffffff8211156122ca57600080fd5b601f19601f8301169050602081019050919050565b6000819050602082019050919050565b6000819050602082019050919050565b6000819050602082019050919050565b6000819050602082019050919050565b600081519050919050565b600081519050919050565b600081519050919050565b600081519050919050565b600081519050919050565b600081519050919050565b6000602082019050919050565b6000602082019050919050565b6000602082019050919050565b6000602082019050919050565b600082825260208201905092915050565b600082825260208201905092915050565b600082825260208201905092915050565b600082825260208201905092915050565b600082825260208201905092915050565b600082825260208201905092915050565b60006124068261242b565b9050919050565b60006124188261242b565b9050919050565b60008115159050919050565b600073ffffffffffffffffffffffffffffffffffffffff82169050919050565b6000819050919050565b82818337600083830152505050565b60005b83811015612482578082015181840152602081019050612467565b83811115612491576000848401525b50505050565b6000601f19601f8301169050919050565b6124b1816123fb565b81146124bc57600080fd5b50565b6124c88161240d565b81146124d357600080fd5b50565b6124df8161244b565b81146124ea57600080fd5b5056fea365627a7a7231582035c350860d33f93f69d8584d408074fd682141b123f4f7b2fd251676053a7ff66c6578706572696d656e74616cf564736f6c63430005100040",
  "source": "pragma solidity >=0.4.21 <0.7.0;\r\npragma experimental ABIEncoderV2;\r\n\r\ncontract Main {\r\n    \r\n    address initialCreator; \r\n    constructor() payable public {\r\n        initialCreator = msg.sender;\r\n    }\r\n    \r\n    //Ipfs thing\r\n  string storedData;\r\n\r\n  function set(string memory x) public {\r\n    storedData = x;\r\n  }\r\n\r\n  function get() public view returns (string memory) {\r\n    return storedData;\r\n  }\r\n \r\n  function () external payable {\r\n\r\n  }\r\n\r\n    \r\n    \r\n    //These are just defining data stuff... *******\r\n    struct submission {\r\n        address payable submitter;\r\n        uint256 accuracy;\r\n        string bountyName;\r\n    }\r\n    \r\n    struct bounty {\r\n        string name;\r\n        submission[] submissions;\r\n        uint256 requirement;\r\n        uint256 bountyAmount;\r\n    }\r\n    \r\n    mapping(address => bounty) bountyHashTable;\r\n    address payable[] bountyAddresses;\r\n    \r\n    bool bountyTracker = true;\r\n    function resetBountyTracker() private {\r\n        bountyTracker = true;\r\n    }\r\n    // ****************\r\n    \r\n    function returnBountyAddresses() public view returns (address payable[] memory) {\r\n        return bountyAddresses;\r\n    }\r\n    //First main function, add a new bounty (in this contract i refer to _address as the bounty creator, _submitter as a test case submitter)\r\n    function addNewBounty(address payable _address, string memory _name, uint256 _requirement, uint256 _bountyAmount) public {\r\n        for (uint256 i = 0; i < bountyAddresses.length; i++) { \r\n            if (bountyAddresses[i] == _address) {\r\n                bountyTracker = false;\r\n                break;\r\n            }\r\n        }\r\n        if (bountyTracker == true) {\r\n            require (msg.sender == initialCreator);\r\n            bountyHashTable[_address].name = _name;\r\n            bountyHashTable[_address].requirement = _requirement;\r\n            bountyHashTable[_address].bountyAmount = _bountyAmount;\r\n            bountyAddresses.push(_address);\r\n        } else {\r\n            resetBountyTracker();\r\n        }\r\n    }\r\n    \r\n    //Helper function and bool. No endpoint *****\r\n    bool submissionTracker = true;\r\n    function resetSubmissionTracker() private {\r\n        submissionTracker = true;\r\n    }\r\n    //***\r\n    \r\n    //Adding a new submission - see main function comment for parameters\r\n    function addNewSubmission(uint256 _accuracy, address payable _submitter, address payable _address) public {\r\n            for (uint256 k = 0; k < bountyHashTable[_address].submissions.length; k++) {\r\n                if (bountyHashTable[_address].submissions[k].submitter == _submitter) {\r\n                    submissionTracker == false;\r\n                    break;\r\n                }\r\n        }\r\n        \r\n        if (submissionTracker == true) {\r\n            require (msg.sender == initialCreator);\r\n            submission memory sub;\r\n            sub.submitter = _submitter;\r\n            sub.accuracy = _accuracy;\r\n            sub.bountyName = bountyHashTable[_address].name;\r\n            bountyHashTable[_address].submissions.push(sub);\r\n        } else {\r\n            resetSubmissionTracker();\r\n        }\r\n    }\r\n    \r\n    //Helper function - _amount is in wei BTW - no endpoint please\r\n    function payment(address payable _submitter, uint256  _amount)public payable returns (bool) {\r\n        require (msg.sender == initialCreator);\r\n        require (address(this).balance > _amount);\r\n        _submitter.transfer(_amount);\r\n        return true;\r\n    }\r\n    //here we need the address of the user who made the bounty, the submitter that is getting partial payment, it updates the amount in bounty too\r\n    function partialPayment(address payable _submitter, uint256 _amount, address payable _address) public payable returns (bool) {\r\n        require (msg.sender == initialCreator);\r\n        payment(_submitter, _amount);\r\n        bountyHashTable[_address].bountyAmount = bountyHashTable[_address].bountyAmount - _amount;\r\n        return true;\r\n    }\r\n    \r\n    //This completes the full payment with only submitter and bounty maker address, then deletes the bounty\r\n    function fullPayment(address payable _submitter, address payable _address) public payable returns (bool){\r\n        require (msg.sender == initialCreator);\r\n        require (address(this).balance >= bountyHashTable[_address].bountyAmount);\r\n        _submitter.transfer(bountyHashTable[_address].bountyAmount);\r\n        bountyHashTable[_address].bountyAmount = 0;\r\n        bountyHashTable[_address].name = \"\";\r\n        bountyHashTable[_address].requirement = 0;\r\n        delete bountyHashTable[_address].submissions;\r\n        \r\n        for (uint256 l = 0; l < bountyAddresses.length; l++) {\r\n            if (bountyAddresses[l] == _address) {\r\n                delete bountyAddresses[l];\r\n                break;\r\n            }\r\n        }\r\n        return true;\r\n    }\r\n    \r\n    //Helper function and array, do not make endpoint, used in the main function of retrieving bounties\r\n    bounty[] tempBountyArray;\r\n    function returnTempBountyArray() public view returns (bounty[] memory) {\r\n        return tempBountyArray;\r\n    }\r\n\r\n    function deleteTempBountyArray() public {\r\n        delete tempBountyArray;\r\n    }\r\n    \r\n    //Main retriever function, returns results then clears it too - this is obv an endpoint -- also, this technically returns all submissions for all given bounties\r\n    function retreieveTempBountyArray() public {\r\n        for (uint256 j = 0; j < bountyAddresses.length; j++) {\r\n            tempBountyArray.push(bountyHashTable[bountyAddresses[j]]);\r\n        }\r\n        returnTempBountyArray();\r\n    }\r\n    \r\n    //This is a helper function and array - do not pay attention or endpoint\r\n    submission[] tempSubmissionArray;\r\n    function returnTempSubmissionArray() public view returns (submission[] memory) {\r\n        return tempSubmissionArray;\r\n    }\r\n    function deleteTempSubmissionArray() public {\r\n        delete tempSubmissionArray;\r\n    }\r\n    \r\n    //This function for endpoint finds all the submissions for any given address and returns an array of it including their accuracy and the name of the bounty \r\n    function retrieveTempSubmissionArray(address _submitter) public {\r\n        for (uint256 p = 0; p < bountyAddresses.length; p++) {\r\n            for (uint256 u = 0; u < bountyHashTable[bountyAddresses[p]].submissions.length; u++) {\r\n                if (bountyHashTable[bountyAddresses[p]].submissions[u].submitter == _submitter) {\r\n                    tempSubmissionArray.push( bountyHashTable[bountyAddresses[p]].submissions[u]);\r\n                }\r\n            }\r\n        }\r\n        returnTempSubmissionArray();\r\n    }\r\n    \r\n}\r\n",
  "sourcePath": "C:\\Users\\marko\\Documents\\GitHub\\Hack-The-Northeast\\contracts\\Main.sol",
  "compiler": {
    "name": "solc",
    "version": "0.5.16+commit.9c3226ce.Emscripten.clang"
  },
  "schemaVersion": "3.0.23",
  "updatedAt": "2020-06-06T21:06:56.394Z",
  "networkType": "ethereum",
  "devdoc": {
    "methods": {}
  },
  "userdoc": {
    "methods": {}
  }
}